:100000000C945D000C9485000C9485000C94850084
:100010000C9485000C9485000C9485000C9485004C
:100020000C9485000C9485000C9485000C9485003C
:100030000C9485000C9485000C9485000C9485002C
:100040000C94E6080C9485000C9485000C948500B3
:100050000C9485000C9485000C9485000C9485000C
:100060000C9485000C94850000000008000201003B
:100070000003040700000000000000000000000072
:10008000250028002B0000000000240027002A0083
:10009000040404040404040402020202020203032E
:1000A0000303030301020408102040800102040836
:1000B0001020010204081020CD0B11241FBECFEF29
:1000C000D8E0DEBFCDBF21E0A2E2B1E001C01D92C9
:1000D000A038B207E1F711E0A0E0B1E0E2E1FDE114
:1000E00002C005900D92A232B107D9F710E0CDE51C
:1000F000D0E004C02197FE010E94A90DCC35D107A4
:10010000C9F70E94180C0C94870E0C9400002F92D3
:100110003F924F925F926F927F928F929F92AF9297
:10012000BF92CF92DF92EF92FF920F931F93CF93E4
:10013000DF93CDB7DEB7E6970FB6F894DEBF0FBEFC
:10014000CDBF7C012A013B013EA72DA70E94DA0802
:1001500069A77AA78BA79CA787010D5B1F4F170183
:1001600023E5220E311CF801818D928D892B49F0F7
:10017000D801ED91FC910680F781E02DC801099529
:10018000F2CFD08C80E590E00E94E209A12CB12C46
:100190008D2D0E94B1094C01892B21F08D2D0E94DB
:1001A000B1095C01A814B90499F70E94E1091A1475
:1001B0001B04CCF00E94DA08DC01CB0129A53AA58A
:1001C0004BA55CA5821B930BA40BB50B48165906D7
:1001D0006A067B0608F44CC062E370E080E090E0C1
:1001E0000E94A008C0CF48E050E0BE016F5F7F4F83
:1001F000D80158968C910E94E5091816190604F545
:1002000089819A81AB81BC81F10180839183A28332
:10021000B3838D8190E0982F88272E81820F911DC6
:10022000D80155969C938E9354978F8190E0982F88
:1002300088272885820F911D5A969C938E935997F3
:10024000181619060CF0B6CF42E250E0BE016F5FFF
:100250007F4FC8010E94810A8981823011F080E0BD
:100260007CC1F8018489958983349105C1F702C066
:100270008FEF73C16D817E818F8198850E94A20D61
:100280004B015C01ADA5BEA56D937D938D939C93B1
:10029000139746E050E0B701685F7F4FCE014D965F
:1002A0000E94B40D892BD9F6F70180819181A2813A
:1002B000B38188169906AA06BB0688F284819581C7
:1002C000A681B78188159905AA05BB0540F28989E1
:1002D0009A89AB89BC8986879787A08BB18B8EEC76
:1002E000A82EB12CC8010E94A00AF1E0AF1AB108F3
:1002F000C9F719A6670122E2C20ED11C97012A5D37
:100300003F4F3EA72DA72C5F3F4F38AB2FA7A7012C
:10031000465E5F4F4A01275D3F4F3AAB29AB215400
:1003200031093CAB2BAB170136E1230E311C970191
:10033000225E3F4F3EAB2DABF801818D928D18169A
:1003400019060CF009C1C8010E94A00A8333910567
:1003500009F4D8C0FCF481309105C9F11CF4892B53
:1003600059F3EEC083309105D1F1069709F0E8C04A
:10037000C8010E94A00A5C0144E050E06DA97EA97A
:10038000C8010E94810A412C512CBB2454E0A51ABB
:10039000B10840C08A33910509F482C03CF485332A
:1003A000910569F0C69709F440C0CAC08B33910526
:1003B00009F48FC08F3F910509F4BECFC1C0C801B9
:1003C0000E94A00AC8010E94A00A89A7B5CFC8014F
:1003D0000E94A00A44E050E06BA97CA941C0C8017A
:1003E0000E94A00A5C0144E050E0B101C8010E94F3
:1003F000810A412C512CBB2434E0A31AB1084A14C1
:100400005B040CF099CFC8010E94A00A4FEF441A78
:10041000540AF5CF4A145B040CF08ECFC8010E9439
:10042000A00A8FEF481A580AF5CFC8010E94A00A07
:10043000B82ED7015A968C915A97811115C05B96A8
:100440008C915B97811110C05C968C915C978111A7
:100450000BC05D968C91811107C044E050E0B4015F
:10046000C8010E94810A68CFE9A9FAA94080518099
:1004700062807380B401CE0183960E9490088DA1A2
:100480009EA1AFA1B8A584159505A605B70529F3CA
:10049000BB2009F451CFC8010E94A00ABA94F8CF3A
:1004A000C8010E94A00A44E050E06DA57EA5C801E5
:1004B0000E94810AD70196966D917D918D919C91B4
:1004C00099970E94A20DF70166A377A380A791A731
:1004D00033CFC8010E94A00A44E050E06FA578A97C
:1004E000C8010E94810AD7019A966D917D918D91E4
:1004F0009C919D970E94A20DF70162A773A784A704
:1005000095A71ACFC8010E94A00A44E050E0B601A6
:10051000C8010E94810AD70192966D917D918D91BB
:100520009C9195970E94A20DF70162A373A384A3E7
:1005300095A39E966D937D938D939C93D197FCCEBE
:10054000C8010E94A00AB82EBB2009F4F5CEC8014C
:100550000E94A00ABA94F8CF89A5E6960FB6F8943F
:10056000DEBF0FBECDBFDF91CF911F910F91FF90E6
:10057000EF90DF90CF90BF90AF909F908F907F9043
:100580006F905F904F903F902F9008957F928F9241
:100590009F92AF92BF92CF92DF92EF92FF920F9312
:1005A0001F93CF93DF93CDB7DEB7A6970FB6F8941E
:1005B000DEBF0FBECDBF8C01762E942E852E20E29D
:1005C000B22ECE0101967C01FC012B2D11922A95B1
:1005D000E9F782E191E09AA389A38FEF8BA38CA323
:1005E0008DA38EA3680183E4C80ED11C43E450E0C0
:1005F000BE016F5D7F4FC6010E94760B019609F424
:10060000E6C081E089838A8386E0A82EAB821C82C3
:10061000F80164817581868197810E94A20D6D83A6
:100620007E838F83988789869A8680E890E09C876E
:100630008B874CE150E0B701C6010E94DB0AF7014D
:100640002B2D11922A95E9F7480188E0880E911C1C
:10065000F401D70101900D92AA94E1F740E150E036
:10066000B701C6010E94DB0AF7011192BA94E9F7BB
:1006700096E0A92EB12C40E250E0B701C6010E94DD
:10068000DB0AF1E0AF1AB108B1F783E6898392E89B
:100690009A8393E59B838C8385E38D8381E08E83AE
:1006A0007F829DE3988797E099878A8786E0F401A7
:1006B000DE011B9601900D928A95E1F78CE0898B03
:1006C0008A8B6AE171E0CE0143960E94C10DF80168
:1006D0004385BE01675E7F4FC8010E94B80BF801D9
:1006E0004485BE01655E7F4FC8010E94B80BF801CA
:1006F0004585BE01635E7F4FC8010E94B80B4EE185
:1007000050E0B701C6010E94DB0AF3E07F121EC071
:1007100082E3898384E08A83F80196859B839785A9
:100720009C8390899D8391899E8396E39F8388878C
:10073000828D8987838D8A87848D8B87858D8C8731
:100740004CE050E0B701C6010E94DB0A87E38983D1
:1007500086E08A8391E09B8393E09C838D838FE086
:100760008E838AE38F838BE388878FEF898749E0C5
:1007700050E0B701C6010E94DB0AF601108D80E54A
:1007800090E00E94E20960E270E0812F0E94780709
:1007900062E070E0812F0E948B0984FD10C062E04E
:1007A00070E0812F0E948B0983FF02C048E108C0DE
:1007B0000E94E10980E590E00E94E209E9CF40E172
:1007C00062E070E0812F0E9481090E94E109A696F3
:1007D0000FB6F894DEBF0FBECDBFDF91CF911F9152
:1007E0000F91FF90EF90DF90CF90BF90AF909F90D0
:1007F0008F907F9008953F924F925F926F927F9279
:100800008F929F92AF92BF92CF92DF92EF92FF9220
:100810000F931F93CF93DF9300D000D01F92CDB7DB
:10082000DEB78C010E94160E2FEC37E040E050E05E
:100830000E94240EDC01CB010196A11DB11DF8011F
:1008400084839583A683B78380839183A283B383B4
:100850007801F3E4EF0EF11CD70158968C918430A7
:1008600081F00E94C90AD7015896EC915897F0E0A0
:10087000EE0FFF1FEE5DFE4F1182108284E058964E
:100880008C93F701808D843009F08DC1D12C80E5E7
:1008900090E00E94E20963E070E08D2D0E948B09D8
:1008A0008D830E94E1098D81811104C0D701589682
:1008B000DC9206C08831D1F3D394B4E0DB12E7CFE9
:1008C000F701D08CF4E0DF1609F46DC184E490E008
:1008D000D7011D969C938E931C975A961C921E923C
:1008E00059978D2D0E94C90A80E590E00E94E20987
:1008F00042E060E070E08D2D0E94810940E064E0FC
:1009000070E08D2D0E94810944E465E070E08D2D3A
:100910000E94810961E070E08D2D0E9478070E949D
:10092000E1090E94DA082B013C01812C912CD12C89
:100930005801B2E4AB0EB11C43E0342E52E0C52E98
:10094000D5018C91833009F404C1811121C0F801D3
:1009500084819581A681B7810196A11DB11D8483F3
:100960009583A683B7830E94DA08641975098609FE
:10097000970928EE33E040E050E00E94560EA901AE
:1009800061E0C8010E94C60281E0D5018C93C3C01A
:10099000843001F5F80184819581A681B7810196A3
:1009A000A11DB11D84839583A683B7830E94DA08B5
:1009B000641975098609970928EE33E040E050E094
:1009C0000E94560EA90163E0C8010E94C602D5012B
:1009D000CC92A1C0813061F5F80142AD53AD64AD58
:1009E00075AD9E012F5F3F4FC8010E948700D82E32
:1009F000F2E08F1390C089819A81AB81BC81F801AC
:100A000084839583A683B7830E94DA0864197509E5
:100A10008609970928EE33E040E050E00E94560E28
:100A2000A90163E0C8010E94C602D501DC9279C029
:100A3000823009F070C0F80142AD53AD64AD75ADC0
:100A40009E012F5F3F4FC8010E948700D82EF5E01E
:100A50008F135BC0D5013C92F80182A193A1A4A1A0
:100A6000B5A1892B8A2B8B2B41F484E893E0A0E07D
:100A7000B0E082A393A3A4A3B5A3F80186A197A194
:100A8000A0A5B1A5892B8A2B8B2B61F482A193A100
:100A9000A4A1B5A1B695A7959795879586A397A389
:100AA000A0A7B1A7F80182A593A5A4A5B5A5892BF8
:100AB0008A2B8B2BA9F482A193A1A4A1B5A1AC018F
:100AC000BD0123E076956795579547952A95D1F70F
:100AD000841B950BA60BB70B82A793A7A4A7B5A75A
:100AE000F80186A197A1A0A5B1A586A797A7A0AB5D
:100AF000B1AB82A593A5A4A5B5A582AB93ABA4ABDE
:100B0000B5AB88248394912C0CC0F6E08F1303C0FE
:100B1000D5011C9206C0BFEFDB1203C0F5011082A5
:100B2000D12CF1E08F16910409F40ACF0E94DA0863
:100B3000DC01CB0184199509A609B709F80126A99A
:100B400037A940AD51AD281739074A075B0708F0B0
:100B5000F7CEF701808D843081F00E94C90AD70159
:100B60005896EC915897F0E0EE0FFF1FEE5DFE4FA8
:100B70001182108284E058968C93F80184819581CB
:100B8000A681B7810196A11DB11D84839583A6839B
:100B9000B7830E94DA08F801FE966083718382832E
:100BA0009383C40102C080E090E00F900F900F90FB
:100BB0000F900F90DF91CF911F910F91FF90EF90C9
:100BC000DF90CF90BF90AF909F908F907F906F906D
:100BD0005F904F903F90089590E0FC01EC55FF4FDF
:100BE0002491FC01E057FF4F8491882399F090E015
:100BF000880F991FFC01EA57FF4FA591B491FC01A2
:100C0000E458FF4F859194918FB7F894EC91E22BC3
:100C1000EC938FBF0895CF92DF92EF92FF920F93E4
:100C20001F93CF93DF93CDB7DEB7C254D1090FB670
:100C3000F894DEBF0FBECDBFFC0182819381A481F9
:100C4000B58123968CAF9DAFAEAFBFAF239721E0A8
:100C500023962FAF239723964CAD5DAD6EAD7FAD40
:100C600023974BAB5CAB6DAB7EAB89AF9AAFABAFB1
:100C7000BCAF8DA79EA7AFA7B8AB28AB4DA55EA50F
:100C80006FA578A94FA358A769A77AA72EAB4BA940
:100C90005CA96DA97EA949A35AA36BA37CA38B8FE2
:100CA0009C8FAD8FBE8F42E151E05C8B4B8B3FEF51
:100CB0003D8B3E8B3F8B188E5E874D872AA7CFA03A
:100CC000D8A4E9A4FAA4CF86D88AE98AFA8A2CA300
:100CD00009A11AA12BA13CA109871A872B873C8760
:100CE0005A8349838B839C83AD83BE836CE271E01E
:100CF00080E090E00E94A0081FB7F89480913E0128
:100D0000811163C08AE990E0FC0124914EEA50E031
:100D1000FA01649130E0220F331F2A573F4FF90147
:100D2000A591B4912C91622309F040C0E2E7F0E074
:100D30002491FA014491FC0194919923B9F1222361
:100D400039F1233091F038F42130A9F0223001F547
:100D500084B58F7D12C0273091F02830A1F0243067
:100D6000B9F4809180008F7D03C0809180008F77DF
:100D7000809380000DC084B58F7784BD09C08091B9
:100D8000B0008F7703C08091B0008F7D8093B0005A
:100D9000E92FF0E0EE0FFF1FE458FF4FA591B4914B
:100DA0008FB7F8949C91492B4C938FBF8AE00E9497
:100DB000EC058CB580618CBD8CB580648CBD8DE0FC
:100DC0000E94EC058BE00E94EC0580913E018F5F54
:100DD00080933E011FBF229A80E590E00E94E209C5
:100DE00060E880E090E00E945F0965E58BE190E0BB
:100DF0000E945F0965E58AE190E00E945F090E9418
:100E0000E10980E090E490932B0180932A0180E037
:100E100090E6909333018093320180E098E49093C0
:100E20002D0180932C0180E098E69093350180930A
:100E3000340180E090E590932F0180932E0180E0B3
:100E400090E7909337018093360180E098E5909386
:100E500031018093300180E098E7909339018093CD
:100E6000380180E590E00E94E20946E050E064E04D
:100E700071E089E090E00E94300944E050E0BE015A
:100E80006D5F7F4F8FE090E00E94300944E050E0BA
:100E9000BE01615F7F4F81E090E00E94300944E035
:100EA00050E0BE016B5E7F4F85E090E00E9430090C
:100EB0000E94E10981E08C8789859A85AB85BC8594
:100EC0008093590190935A01A0935B01B0935C0108
:100ED000CE5BDF4F0FB6F894DEBF0FBECDBFDF9104
:100EE000CF911F910F91FF90EF90DF90CF900895D9
:100EF000CF93C82F462F61E070E00E94810961E026
:100F000070E08C2F0E948B098111F9CFCF91089549
:100F10004F925F926F927F92EF92FF920F931F9387
:100F2000CF93DF93CDB7DEB7A1970FB6F894DEBFAE
:100F30000FBECDBF7C01FA01CB0119A2223008F40B
:100F40002AE08E010F5D1F4F422E512C612C712C17
:100F5000BF01A30192010E94560EF901CA0101507E
:100F600011096A3014F4605D01C0695CD8016C93AA
:100F7000232B242B252B61F70115110591F0F80186
:100F800001900020E9F73197AF01401B510BD701C9
:100F9000ED91FC910280F381E02DB801C701099524
:100FA00002C080E090E0A1960FB6F894DEBF0FBEBD
:100FB000CDBFDF91CF911F910F91FF90EF907F9068
:100FC0006F905F904F9008953FB7F89480917C01A7
:100FD00090917D01A0917E01B0917F0126B5A89BE3
:100FE00005C02F3F19F00196A11DB11D3FBFBA2FBB
:100FF000A92F982F8827820F911DA11DB11DBC011B
:10100000CD0142E0660F771F881F991F4A95D1F7DF
:1010100008952A9A08952A9808958EBD00000DB467
:1010200007FEFDCF8EB50895CF92DF92EF92FF922B
:101030000F931F93CF93DF93EC017A018B016C0127
:10104000C40ED51ECC15DD05A9F00E940B088FE05B
:101050000E940D088D2F0E940D088C2F0E940D08F4
:10106000219680E00E940D08F80181938F010E9473
:101070000908E8CFC701DF91CF911F910F91FF9031
:10108000EF90DF90CF9008958F929F92AF92BF9292
:10109000CF92DF92EF92FF920F931F93CF93DF9344
:1010A0007C01EB016C0182E0C80ED11C4701E5E038
:1010B0008E0E911C00E010E0F60141916F0150E0AE
:1010C00060E070E02AE0CE010E9488075C01E881C0
:1010D000F9810190F081E02D6EE2CE0109958A0D33
:1010E0009B1D080F191FC814D90431F7F70145815A
:1010F00050E060E070E02AE0CE010E948807800F97
:10110000911FDF91CF911F910F91FF90EF90DF9092
:10111000CF90BF90AF909F908F9008950E94AF0D99
:1011200022E131E0FC0131832083FB0140815181C8
:1011300062817381FC0142835383648375830895C4
:101140008F929F92AF92BF92CF92DF92EF92FF92D7
:101150006B017C010E94E4074B015C01C114D104C6
:10116000E104F104F1F00E94E407DC01CB018819ED
:101170009909AA09BB09883E9340A105B10570F3FE
:1011800021E0C21AD108E108F10888EE880E83E058
:10119000981EA11CB11CC114D104E104F10419F77B
:1011A000DDCFFF90EF90DF90CF90BF90AF909F90FA
:1011B0008F9008952FB7F89460917801709179011C
:1011C00080917A0190917B012FBF08951F920F9219
:1011D0000FB60F9211242F933F938F939F93AF934A
:1011E000BF938091780190917901A0917A01B0919B
:1011F0007B013091770123E0230F2D3720F40196F6
:10120000A11DB11D05C026E8230F0296A11DB11D29
:10121000209377018093780190937901A0937A01CC
:10122000B0937B0180917C0190917D01A0917E0122
:10123000B0917F010196A11DB11D80937C01909317
:101240007D01A0937E01B0937F01BF91AF919F91EB
:101250008F913F912F910F900FBE0F901F90189577
:10126000CF92DF92EF92FF920F931F93CF93DF9372
:10127000EC017A018B016C01C40ED51ECC15DD0585
:10128000A1F00E940B0880EF0E940D088D2F0E9494
:101290000D088C2F0E940D082196F80181918F0175
:1012A0000E940D080E940908E9CFC701DF91CF9184
:1012B0001F910F91FF90EF90DF90CF9008951F93B3
:1012C000CF93DF9300D0CDB7DEB7182F6A83998311
:1012D0000E940B0880EF0E940D089981892F0E94BF
:1012E0000D08812F0E940D086A81862F0E940D082B
:1012F0000E94090881E00F900F90DF91CF911F911C
:1013000008959B0190E00496982F8827642F820F00
:10131000931F0C945F090F931F93CF93DF931F923A
:10132000CDB7DEB790E00496982F88278C01060F82
:10133000171F0E940B088FE00E940D08812F0E944A
:101340000D08802F0E940D0880E00E940D088983FF
:101350000E94090889810F90DF91CF911F910F9111
:1013600008951F93CF93DF93182F66E270E00E94D9
:101370008B09C82FD0E067E270E0812F0E948B09B3
:10138000DC2FCC279E01282BC901DF91CF911F9123
:1013900008951F93CF93DF93182F60E270E00E94AF
:1013A0008B09C82FD0E061E270E0812F0E948B0989
:1013B000DC2FCC279E01282BC901DF91CF911F91F3
:1013C000089508958CBD9DBD08958F929F92AF9210
:1013D000BF92CF92DF92FF920F931F93CF93DF9331
:1013E000F82E4B018A0180E590E00E94E209C0E0FE
:1013F000D0E08F2D0E94B1096C01892B21F08F2D37
:101400000E94B109EC01CC15DD0599F72097A9F4EC
:1014100063E070E08F2D0E948B09843109F464C071
:10142000882309F461C0C1E0D0E08C3111F4C0E040
:10143000D0E0D195C195D10957C00C171D070CF408
:10144000E8011C161D060CF04FC068E270E08F2DFD
:101450000E948B09082F10E069E270E08F2D0E9436
:101460008B09102F0027082B98013770AF2CB12C57
:10147000C501880F991FAC014E5C5E4F5A01FA01FD
:1014800080819181820F931FAE01420F531F413023
:10149000584098F060E078E06B01C21AD30AA601C8
:1014A000B4010E941408AE014C195D09B4016C0D21
:1014B0007D1DF5018081918102C0AE01B4010E94C1
:1014C00014080C0F1D1F412F68E270E08F2D0E9441
:1014D0008109402F69E270E08F2D0E94810960E44C
:1014E00070E08F2D0E947807CE01DF91CF911F9180
:1014F0000F91FF90DF90CF90BF90AF909F908F9013
:101500000895CF93DF93FC01218D328D2115310594
:1015100019F48FEF9FEF11C0EC014217530708F049
:10152000A901888D0E94E5091816190694F7298DDE
:101530003A8D281B390B3A8F298FDF91CF9108956F
:101540000F931F93CF93DF931F92CDB7DEB7FC01AC
:10155000218D328D232B61F08C0141E050E0BE01E2
:101560006F5F7F4F808D0E94E509181619061CF0E9
:101570008FEF9FEF08C0F801818D928D0197928FB8
:10158000818F898190E00F90DF91CF911F910F9112
:101590000895CF93C82F80E590E00E94E20960E1B2
:1015A00070E08C2F0E9478074FEF62E070E08C2F84
:1015B000CF910C9481097F928F929F92AF92BF92AC
:1015C000CF92DF92EF92FF920F931F93CF93DF930F
:1015D0005C014B016A01FC0106891789708C80E56A
:1015E00090E00E94E209C0E0D0E0872D0E94C90986
:1015F0007C01892B21F0872D0E94C909EC01CE15B1
:10160000DF0599F7CC15DD0578F4C0E0D0E0872D33
:101610000E94C9096C01892B21F0872D0E94C909FC
:10162000EC01CC15DD0599F764E270E0872D0E948E
:101630008B09E82EF12C65E270E0872D0E948B0962
:10164000FE2CEE24E82AE701C00FD11F9E0137705F
:10165000E72CF12CC701880F991FAC01465D5E4F46
:101660007A01FA0180819181820F931FA9014C0DAB
:101670005D1D4130584090F000E018E0021B130B54
:10168000A801B4010E943009A601401B510BB4010E
:10169000600F711FF7018081918102C0A601B40122
:1016A0000E943009CC0DDD1D4D2F64E270E0872DC6
:1016B0000E9481094C2F65E270E0872D0E9481090C
:1016C000F501868997898C0D9D1D978B868BC601A8
:1016D000DF91CF911F910F91FF90EF90DF90CF900E
:1016E000BF90AF909F908F907F900895EF92FF9260
:1016F0001F93CF93DF93EB017A01FC01178A168ABF
:10170000108D8A81811109C08B81811106C08C8165
:10171000811103C08D81882319F1E114F10401F1D5
:1017200080E590E00E94E209BE016E5F7F4F812F4D
:1017300090E0982F882744E050E0845F9B4F0E9400
:1017400030094F2D60E170E0812F0E9481094E2DFC
:1017500061E170E0812F0E94810981E090E002C088
:1017600080E090E0DF91CF911F91FF90EF9008957E
:1017700080E3FB0180833296842F82958F7090E105
:10178000899F401911244A3014F4405D01C0495C1E
:101790004293482F8111F0CF0895EFE3F1E082E109
:1017A00091E0918380831282138214821582E5E492
:1017B000F1E0918380831282138214821582EBE41C
:1017C000F1E0918380831282138214821582E1E515
:1017D000F1E0918380831282138214821582EFE5F7
:1017E000F1E0918380831282138214821582E7E5EF
:1017F000F1E0918380831282138214821582E5E6E0
:10180000F1E0918380831282138214821582EBE6C9
:10181000F1E0918380831282138214821582E1E7C2
:10182000F1E09183808312821382148215820895DD
:10183000CF93DF93CDB7DEB72A970FB6F894DEBF0C
:101840000FBECDBF789484B5826084BD84B58160BD
:1018500084BD85B5826085BD85B5816085BD80917B
:101860006E00816080936E001092810080918100F3
:1018700082608093810080918100816080938100EB
:10188000809180008160809380008091B1008460AD
:101890008093B1008091B00081608093B00080910E
:1018A0007A00846080937A0080917A0082608093CD
:1018B0007A0080917A00816080937A0080917A002A
:1018C000806880937A001092C10060E071E0CE01E0
:1018D00001960E949008CE0101960E940B0684E0BA
:1018E0000E94EC0574E1372EE4E02E2EF8EE4F2E28
:1018F000F3E05F2E612C712C0E94DA0800913A010E
:1019000010913B0120913C0130913D016B017C0124
:10191000C01AD10AE20AF30A48EEC41643E0D4061C
:10192000E104F10408F404C160933A0170933B01AF
:1019300080933C0190933D0100915D0110915E0107
:101940000115110509F4F4C00E94DA084B015C018D
:1019500078015EE3E50EF11CF70180819181A2819F
:10196000B381A5019401281B390B4A0B5B0BCA01FB
:10197000B901683E33E073078105910508F448C05A
:10198000A30192010E94560E6F83788789879A87F8
:10199000861A970AA80AB90AD7018D929D92AD922C
:1019A000BC921397F80186A597A5A0A9B1A96901D2
:1019B0007A01CC0CDD1CEE1CFF1C8C159D05AE05C0
:1019C000BF0528F416A617A610AA11AA09C0821BE3
:1019D000930BA40BB50BF80186A797A7A0ABB1ABEF
:1019E000F80182A993A9A4A9B5A98C159D05AE05F6
:1019F000BF0528F412AA13AA14AA15AA09C0821BAB
:101A0000930BA40BB50BF80182AB93ABA4ABB5ABB6
:101A1000F80186A597A5A0A9B1A9892B8A2B8B2BA4
:101A200059F4EE5BFF4F8081833031F42082C8018E
:101A30000E94FB03019602C080E090E0D801D2969C
:101A40004D915D916D917C91D597452B462B472B00
:101A5000A1F4F801EE5BFF4F2081233011F021113A
:101A60000CC01082F8013E96DF01C32C1D92CA946F
:101A7000E9F7C8010E94FB0303968230910519F033
:101A8000049709F055C080E590E00E94E20960915A
:101A90005D0170915E01625F7F4FCE0101960E94F1
:101AA000900844E050E0BE016D5F7F4F8FE090E012
:101AB0000E94300960915D0170915E016A5E7F4F06
:101AC000CE0101960E94900844E050E0BE016D5F97
:101AD0007F4F81E090E00E94300960915D0170913C
:101AE0005E016E5E7F4FCE0101960E94900844E039
:101AF00050E0BE016D5F7F4F85E090E00E943009AD
:101B00000E94E10960915D0170915E01625E7F4F0C
:101B1000CE0101960E9490088B819C81AD81BE818F
:101B20008093590190935A01A0935B01B0935C019B
:101B300080E0E82E80E0F82EEF2809F4DDCE0E9448
:101B40000000DACE69279627692778278727782724
:101B50000895EE0FFF1F0590F491E02D099481E0A8
:101B600090E0F8940C94870EFB01DC0104C08D9189
:101B70000190801921F441505040C8F7881B990BFF
:101B80000895FB01DC0101900D920020E1F708951A
:101B90008F929F92AF92BF92CF92DF92EF92FF927D
:101BA000CF93DF93EC01688179818A819B816115F4
:101BB00071058105910521F464E279ED8BE597E0EB
:101BC0002DE133EF41E050E00E94240E49015A011B
:101BD0009B01AC01A7EAB1E40E94430E6B017C01BA
:101BE000ACEEB4EFA50194010E94510EDC01CB01D3
:101BF0008C0D9D1DAE1DBF1DB7FF03C00197A10930
:101C0000B04888839983AA83BB83BC01CD019F77A9
:101C1000DF91CF91FF90EF90DF90CF90BF90AF908A
:101C20009F908F9008950E94C80D08958AE091E0DA
:101C30000E94C80D089560930A0170930B01809370
:101C40000C0190930D010895052E97FB1EF400944E
:101C50000E943B0E57FD07D00E94560E07FC03D092
:101C60004EF40C943B0E50954095309521953F4F86
:101C70004F4F5F4F089590958095709561957F4F78
:101C80008F4F9F4F08950E94780EA59F900DB49F8F
:101C9000900DA49F800D911D11240895B7FF0C9401
:101CA000430E0E94430E821B930B0895A1E21A2E4D
:101CB000AA1BBB1BFD010DC0AA1FBB1FEE1FFF1FF0
:101CC000A217B307E407F50720F0A21BB30BE40B40
:101CD000F50B661F771F881F991F1A9469F7609587
:101CE0007095809590959B01AC01BD01CF01089541
:101CF000A29FB001B39FC001A39F700D811D11244D
:101D0000911DB29F700D811D1124911D0895F894AD
:021D1000FFCF03
:101D12000A000096BEEFC0FFEE00010000000000C6
:101D220000004408000000008E0857495A6E65748E
:021D32000000AF
:00000001FF
